:020000040800F2
:1000000000A000206D130008E9120008EB120008A0
:10001000ED120008EF120008F112000800000000C5
:10002000000000000000000000000000F3120008C3
:10003000F512000800000000F7120008F91200088D
:10004000BD130008BD130008BD130008BD13000850
:10005000BD130008BD130008BD130008BD13000840
:10006000BD130008BD130008BD130008BD13000830
:10007000BD130008BD130008BD130008BD13000820
:10008000BD130008BD130008BD130008BD13000810
:10009000BD130008BD130008BD130008BD13000800
:1000A000BD130008BD130008BD130008BD130008F0
:1000B000BD130008BD130008BD130008BD130008E0
:1000C000BD130008BD130008BD130008BD130008D0
:1000D000BD130008BD130008BD130008BD130008C0
:1000E000BD130008BD130008BD130008BD130008B0
:1000F000BD130008BD130008BD130008BD130008A0
:10010000000000000000000000000000BD13000817
:10011000BD130008BD130008BD130008BD1300087F
:10012000BD130008BD130008BD130008BD1300086F
:10013000BD130008BD13000800000000000000000F
:10014000BD130008BD130008BD1300080000000027
:10015000000000000000000000000000000000009F
:100160000000000000000000BD130008BD130008DF
:10017000BD130008000000000000000000000000A7
:0801800000000000BD1300089F
:1001880010B5054C237833B9044B13B10448AFF3C9
:1001980000800123237010BD0C0000200000000027
:1001A8000814000808B5034B1BB103490348AFF313
:1001B800008008BD0000000010000020081400089E
:1001C80010B504460E4B18784FF47A73B3FBF0F36E
:1001D8000C4A1068B0FBF3F000F0B2F868B90F2CC5
:1001E80001D901200AE0002221464FF0FF3000F03B
:1001F80061F8034B5C60002000E0012010BD00BFE7
:10020800000000200800002008B5074A136843F0E2
:1002180010031360032000F02FF80020FFF7D0FF31
:1002280001F016F8002008BD00200240034A1168BA
:10023800034B1B780B441360704700BF2800002055
:1002480000000020014B1868704700BF28000020FC
:1002580038B50446FFF7F6FF0546B4F1FF3F02D074
:10026800044B1B781C44FFF7EDFF401BA042FAD358
:1002780038BD00BF0000002010B50446C31E042B83
:100288000FD80A4AD36823F4E0631B041B0C24022A
:1002980004F4E064234343F0BF6343F40033D360C2
:1002A80010BDBC21024800F0D1FFEAE700ED00E0F4
:1002B8006814000870B505460C4616460F2A25D85E
:1002C8000F2C28D81B4BDB68C3F30223C3F10702AA
:1002D800042A28BF0422191D062921D9033B4FF0FF
:1002E800FF3101FA02F224EA02049C4001FA03F306
:1002F80026EA03063443002D14DB2401E4B205F199
:10030800604505F5614585F8004370BDD4210A486C
:1003180000F09CFFD4E7D521074800F097FFD1E70C
:100328000023DCE705F00F052401E4B2034B5C551C
:10033800EBE700BF00ED00E06814000814ED00E0F2
:100348000138B0F1807F0AD2064B5860064AF02186
:1003580082F823100020986007221A607047012055
:10036800704700BF10E000E000ED00E010B5044663
:10037800042800D038B9042C0BD0094A136823F09C
:100388000403136010BD40F2E111064800F05EFF5F
:10039800F1E7034A136843F004031360F2E700BF70
:1003A80010E000E068140008704708B5FFF7FCFF8C
:1003B80008BD00002DE9F04782B006460C46B0F1B2
:1003C800904F16D0A44B984213D003F580639842FF
:1003D8000FD003F5806398420BD003F580639842F1
:1003E80007D003F58063984203D0C3219B4800F0EF
:1003F8002DFF23689AB212B11B0C1B041BB1C42138
:10040800964800F023FF6368012B1ED9112B1CD0DE
:10041800022B1AD0122B18D0914A934215D002F50C
:100428008012934211D002F5801293420DD0A2F5AA
:10043800F812934209D002F58012934205D002F5D2
:100448008012934201D0032B04D1A368022B06D853
:1004580000254AE0C521814800F0F8FEF5E7C621ED
:100468007E4800F0F3FEF3E7D6217C4800F0EEFE6C
:100478006DE0EA21794800F0E9FE98E0042300E005
:1004880000238B4003430232764941F82230764BF1
:100498001A68FB4303EA0201606810F4803F01D048
:1004A80047EA0201704A1160526803EA0201606873
:1004B80010F4003F01D047EA02016B4A516092688C
:1004C80003EA0201606810F4801F01D047EA0201C4
:1004D800654A9160D2681340616811F4001F01D029
:1004E80047EA0203604AD3600135276837FA05F303
:1004F80000F0AF804FF0010808FA05F818EA07077E
:10050800F2D06368022B01D0122B30D1B6F1904F94
:1005180016D0514B9E4213D003F580639E420FD0F4
:1005280003F580639E420BD003F580639E4207D09B
:1005380003F580639E4203D0D521484800F086FE2B
:1005480023690C2B03D90E2B01D00F2B8CD1EA0871
:10055800083256F8220005F0070399000F238B4054
:1005680020EA030023698B40034346F822303268AF
:100578004FEA450A4FF0030909FA0AF96FEA09092F
:1005880009EA0202636803F0030303FA0AF3134358
:10059800336063685A1E012A03D9112B01D0122B2C
:1005A80017D1E368012B02D9032B7FF462AFB2683D
:1005B80009EA0202E36803FA0AF31343B3607368B3
:1005C80023EA08086368C3F30013AB4043EA08034F
:1005D8007360F36809EA0309A36803FA0AF343EAB4
:1005E8000903F360636813F0805F3FF47DAF1F4B2E
:1005F8009A6942F001029A619B6903F00103019331
:10060800019BAA08911C174B53F8210005F003031E
:1006180099000F238B4020EA0300B6F1904F3FF476
:100628002FAF0D4B9E420ED003F580639E420CD037
:1006380003F580639E420AD003F580639E423FF42F
:100648001DAF05231DE701231BE7022319E7032339
:1006580017E702B0BDE8F08700040048A4140008BA
:100668000000111000000140000401400010024089
:1006780038B505460C4621B12B691C4207D100202C
:1006880038BD4FF4C871034800F0E0FDF4E70120DD
:10069800F6E700BFA414000870B5054614460E46D8
:1006A80021B1012C08D86CB9AE6270BD4FF4D87175
:1006B800054800F0CBFDF4E740F2B111024800F024
:1006C800C5FDF0E7AE61F0E7A4140008002800F0CB
:1006D8008A8370B582B00446036813B113F00F0F14
:1006E8002BD0236813F0010F4FD063682BB1B3F5FB
:1006F800803F02D0B3F5A02F25D1B44B5B6803F03F
:100708000C03042B2AD0B14B5B6803F00C03082BB5
:100718001FD06368B3F5803F7CD0002B40F0A680E3
:1007280003F1804303F504331A6822F480321A6017
:100738001A6822F480221A6071E040F25711A44826
:1007480000F084FDCDE740F25D11A14800F07EFD88
:10075800D3E79E4B5B6813F4803FDAD04FF4003345
:1007680093FAA3F3994B19684FF4003393FAA3F360
:10077800B3FA83F303F01F03012202FA03F30B42D7
:1007880003D06368002B00F03083236813F0020F56
:1007980000F0DA802369012B00F2A08063691F2B27
:1007A80000F2A280894B5B6813F00C0F00F0A88060
:1007B800864B5B6803F00C03082B00F09B802369D1
:1007C800002B00F00981012292FAA2F3B3FA83F315
:1007D80003F1845303F584139B001A60FFF732FD7D
:1007E8000546022393FAA3F3784B1968022393FA78
:1007F800A3F3B3FA83F303F01F03012202FA03F30E
:100808000B4240F0D380FFF71DFD401B0228E8D9BA
:100818000320F1E26D4A136843F4803313606B4A96
:10082800D36A23F00F03A1680B43D3626368002BDC
:1008380036D0FFF707FD05464FF4003393FAA3F3CC
:10084800624B19684FF4003393FAA3F3B3FA83F3B6
:1008580003F01F03012202FA03F30B4295D1FFF7BD
:10086800F1FC401B6428E7D90320C5E2B3F5A02FAB
:1008780009D0564B1A6822F480321A601A6822F49A
:1008880080221A60CBE703F18043A3F53C331A6852
:1008980042F480221A601A6842F480321A60BEE775
:1008A800FFF7D0FC05464FF4003393FAA3F3474B08
:1008B80019684FF4003393FAA3F3B3FA83F303F000
:1008C8001F03012202FA03F30B423FF45EAFFFF766
:1008D800B9FC401B6428E6D903208DE240F295114B
:1008E8003B4800F0B3FC59E74FF4CB71384800F0AF
:1008F800ADFC57E7354B5B6813F4803F7FF45FAF7F
:10090800022393FAA3F3314B1968022393FAA3F352
:10091800B3FA83F303F01F03012202FA03F30B4235
:1009280004D02369934201D0012065E22748036877
:1009380023F0F8036169F82292FAA2F2B2FA82F27D
:1009480001FA02F213430360236813F0080F00F062
:100958009880A369012B66D8A369002B69D001216F
:1009680091FAA1F2B2FA82F21A4B13449B00196071
:10097800FFF768FC0546022393FAA3F293FAA3F261
:1009880093FAA3F2114A516A93FAA3F3B3FA83F3E1
:1009980003F01F03012202FA03F30B4271D1FFF7A0
:1009A80051FC401B0228E6D9032025E207480368CA
:1009B80023F0F8036169F82292FAA2F2B2FA82F2FD
:1009C80001FA02F213430360BEE700BF00100240C1
:1009D800E014000820819010012393FAA3F3B3FADE
:1009E80083F303F1845303F584139B0000221A60F8
:1009F800FFF728FC0546022393FAA3F3B94B1968BD
:100A0800022393FAA3F3B3FA83F303F01F0301223B
:100A180002FA03F30B4297D0FFF714FC401B02289D
:100A2800E9D90320E8E14FF4EB71AF4800F00EFC80
:100A380092E7012292FAA2F2B2FA82F2AB4B134485
:100A48009B0000221A60FFF7FDFB0546022393FA7C
:100A5800A3F293FAA3F293FAA3F2A24A516A93FA81
:100A6800A3F3B3FA83F303F01F03012202FA03F39B
:100A78000B4206D0FFF7E6FB401B0228E6D903200D
:100A8800BAE1236813F0040F00F0C080E368012B7B
:100A980001D9052B26D1934BDB6913F0805F27D151
:100AA800904BDA6942F08052DA61DB6903F08053D7
:100AB8000193019B01258E4B1B6813F4807F19D08D
:100AC800E368012B2AD0002B34D103F1804303F5CE
:100AD80004331A6A22F001021A621A6A22F0040226
:100AE8001A6220E040F202217F4800F0AFFBD2E713
:100AF8000025E0E77E4A136843F480731360FFF72C
:100B0800A1FB06467A4B1B6813F4807FD8D1FFF708
:100B180099FB801B6428F5D903206DE1714A136A9B
:100B280043F001031362E368002B41D0FFF78AFB0F
:100B380006462BE0052B09D06A4B1A6A22F00102FF
:100B48001A621A6A22F004021A62ECE7654B1A6A02
:100B580042F004021A621A6A42F001021A62E2E7DB
:100B6800604B196A022393FAA3F3B3FA83F303F0F1
:100B78001F03012202FA03F3194245D1FFF762FB72
:100B8800801B41F28833984200F23181022393FAA4
:100B9800A3F293FAA3F3B3FA83F35B0943F00203D6
:100BA800022BDDD0022393FAA3F34E4B596AD9E7FF
:100BB800FFF748FB064615E04A4B196A022393FAE9
:100BC800A3F3B3FA83F303F01F03012202FA03F33A
:100BD800194219D0FFF736FB801B41F2883398423F
:100BE80000F20781022393FAA3F293FAA3F3B3FA6C
:100BF80083F35B0943F00203022BDDD0022393FA4F
:100C0800A3F3384B596AD9E7002D73D1E369022B56
:100C180076D8E369002B00F0EE80324A526802F081
:100C28000C02082A00F0EA80022B40F0B080236A08
:100C380013B1B3F5803F69D1636A4BB3B3F5802F25
:100C480026D0B3F5002F23D0B3F5402F20D0B3F52D
:100C5800801F1DD0B3F5A01F1AD0B3F5C01F17D041
:100C6800B3F5E01F14D0B3F5001F11D0B3F5101F72
:100C78000ED0B3F5201F0BD0B3F5301F08D0B3F555
:100C8800401F05D0B3F5501F02D0B3F5601F43D104
:100C98004FF0807393FAA3F3B3FA83F303F1845309
:100CA80003F584139B0000221A60FFF7CBFA054670
:100CB8004FF0007393FAA3F30A4B19684FF00073CF
:100CC80093FAA3F3B3FA83F303F01F03012202FAA2
:100CD80003F3194226D0FFF7B5FA401B0228E7D9DB
:100CE800032089E000100240E014000820819010E1
:100CF80000700040424AD36923F08053D36185E7EE
:100D080040F246213F4800F0A1FA82E740F24F2125
:100D18003C4800F09BFA8FE74FF41471394800F013
:100D280095FAB5E736494B6823F47413626A206A6A
:100D3800024313434B604FF0807393FAA3F3B3FA63
:100D480083F303F1845303F584139B0001221A6093
:100D5800FFF778FA04464FF0007393FAA3F3284B91
:100D680019684FF0007393FAA3F3B3FA83F303F00F
:100D78001F03012202FA03F3194206D1FFF762FAB0
:100D8800001B0228E7D9032036E0002034E04FF0AA
:100D9800807393FAA3F3B3FA83F303F1845303F54F
:100DA80084139B0000221A60FFF74CFA04464FF0A8
:100DB800007393FAA3F3124B19684FF0007393FA78
:100DC800A3F3B3FA83F303F01F03012202FA03F338
:100DD800194206D0FFF736FA001B0228E7D903208C
:100DE8000AE0002008E001207047012004E0032009
:100DF80002E0032000E0002002B070BD0120FBE704
:100E080000100240E014000810B4174B5C6804F0AE
:100E18000C03082B26D104F470124FF4701393FAC4
:100E2800A3F3B3FA83F322FA03F31049C85C0E4B19
:100E3800DB6A03F00F030F2292FAA2F2B2FA82F2EF
:100E4800D3400B441A7C14F4803F05D1084B03FBB4
:100E580000F05DF8044B7047064BB3FBF2F300FB60
:100E680003F0F6E70348F4E70010024020140008F6
:100E780000093D0000127A00002800F01B8170B5BF
:100E880004460D46036813F00F0F14D0022D18D82E
:100E98008A4B1B6803F00703AB4218D2874A1368D2
:100EA80023F007032B431360136803F00703AB42D7
:100EB8000DD0012070BD40F2BA21814800F0C6F97A
:100EC800E4E740F2BB217E4800F0C0F9E0E7236880
:100ED80013F0020F18D0A3687BB1802B0DD0902B94
:100EE8000BD0A02B09D0B02B07D0C02B05D0D02B0E
:100EF80003D0E02B01D0F02B3ED1724A536823F087
:100F0800F003A1680B435360236813F0010F69D005
:100F18006368022B36D86368012B39D0022B4CD07A
:100F2800022292FAA2F2674A1068022292FAA2F208
:100F3800B2FA82F202F01F02012101FA02F2104213
:100F480000F0BA805F494A6822F0030213434B60FD
:100F5800FFF778F906465B4B5B6803F00C036268A1
:100F6800B3EB820F3ED0FFF76DF9801B41F2883357
:100F78009842F0D903209DE740F2D221504800F072
:100F880065F9BAE740F2D9214D4800F05FF9C2E7A8
:100F98004FF4003292FAA2F24A4A10684FF4003233
:100FA80092FAA2F2B2FA82F202F01F02012101FAC9
:100FB80002F20242C6D101207CE74FF0007292FA99
:100FC800A2F2404A10684FF0007292FAA2F2B2FA06
:100FD80082F202F01F02012101FA02F21042B1D19D
:100FE800012067E7354B1B6803F00703AB420CD9B8
:100FF800324A136823F007032B431360136803F086
:101008000703AB4201D0012054E7236813F0040F13
:1010180014D0E3685BB1B3F5806F08D0B3F5A06F67
:1010280005D0B3F5C06F02D0B3F5E06F36D1254ACD
:10103800536823F4E063E1680B435360236813F0BB
:10104800080F15D023695BB1B3F5806F08D0B3F5ED
:10105800A06F05D0B3F5C06F02D0B3F5E06F23D110
:10106800184A536823F46053216943EAC103536063
:10107800FFF7CAFE134B5B6803F0F003F02292FA05
:10108800A2F2B2FA82F2D3400F4AD35CD8400F4B97
:1010980018600020FFF794F800200BE740F21531A4
:1010A800074800F0D3F8C2E74FF44771044800F04E
:1010B800CDF8D5E7012070470120FBE6002002406B
:1010C800E014000800100240501400080800002036
:1010D800014B1868704700BF0800002070B588B041
:1010E800174B5A6942F400325A615A6902F40032C5
:1010F8000192019A5A6942F400125A615B6903F439
:1011080000130293029B0F4D00224FF47F412846A3
:10111800FFF7C2FA0126039600240494059403A954
:101128004FF09040FFF746F94FF47F43039304963E
:101138000594069403A92846FFF73CF908B070BD4A
:101148000010024000100048FEE7000000B591B012
:101158000223069301230A9310230B9300230D9374
:1011680006A8FFF7B3FAF0B90F2301930021029103
:1011780003910491059101A8FFF77EFEB8B9FFF726
:10118800A7FF0D4BA3FB00308009FFF7D9F8042017
:10119800FFF7ECF8002211464FF0FF30FFF78AF80E
:1011A80011B05DF804FB9F210448FFF7CDFFAD2186
:1011B8000248FFF7C9FF00BFD34D62101815000899
:1011C8002DE9F04184B0FFF71FF8FFF7BFFFFFF7E5
:1011D80085FF1C4B0FCB04AC04E90F0000263446F6
:1011E80004E001270DE0002C29DD013C01214FF02E
:1011F8009040FFF73DFA00B1013616F0010FF0D12B
:101208000027624204F0070302F0070258BF534266
:1012180004AA02EB430333F8108C0B4D012241461C
:101228002846FFF739FA6420FFF712F800224146F2
:101238002846FFF731FA002FD5D00134D6E7082425
:10124800D3E700BF401400080010004870470000B2
:1012580000B583B0214B9A6942F001029A619A69FC
:1012680002F001020092009ADA6942F08052DA61D3
:10127800DB6903F080530193019B0320FEF7FCFF19
:10128800002211466FF00B00FFF714F800221146F8
:101298006FF00A00FFF70EF8002211466FF0090000
:1012A800FFF708F8002211466FF00400FFF702F874
:1012B800002211466FF00300FEF7FCFF00221146E2
:1012C8006FF00100FEF7F6FF002211464FF0FF30E5
:1012D800FEF7F0FF03B05DF804FB00BF001002400A
:1012E8007047FEE7FEE7FEE7FEE770477047704786
:1012F80008B5FEF79BFFFFF758F808BD1549D1F868
:10130800883043F47003C1F88830134B1A6842F0F0
:1013180001021A605868114A02405A601A6822F09D
:10132800847222F480321A601A6822F480221A60C9
:101338005A6822F4FE025A60DA6A22F00F02DA6270
:10134800186B074A02401A6300229A604FF0006344
:101358008B60704700ED00E0001002400CC07FF881
:10136800CCFC00FFDFF834D0002103E00C4B5B58C5
:10137800435004310B480C4B42189A42F6D30B4A9F
:1013880002E0002342F8043B094B9A42F9D3FFF7E5
:10139800B5FF00F011F8FFF713FFFEE700A00020EB
:1013A80030150008000000200C0000200C00002070
:1013B8002C000020FEE7000070B50D4E0D4CA41B5C
:1013C800A4100025A54209D10B4E0C4C00F018F8CA
:1013D800A41BA4100025A54205D170BD56F82530E0
:1013E80098470135EEE756F8253098470135F2E77A
:1013F8002815000828150008281500082C150008CD
:10140800F8B500BFF8BC08BC9E467047F8B500BFE9
:08141800F8BC08BC9E467047B9
:1014200002030405060708090A0B0C0D0E0F101025
:101430000102030405060708090A0B0C0D0E0F1024
:10144000000100020004000800100020004000809D
:101450000000000000000000010203040607080964
:1014600000000000010203042E2E2F4472697665ED
:1014700072732F53544D3332463378785F48414C62
:101480005F4472697665722F5372632F73746D3384
:1014900032663378785F68616C5F636F7274657809
:1014A0002E6300002E2E2F447269766572732F53BF
:1014B000544D3332463378785F48414C5F4472690B
:1014C0007665722F5372632F73746D33326633787F
:1014D000785F68616C5F6770696F2E630000000061
:1014E0002E2E2F447269766572732F53544D33320A
:1014F000463378785F48414C5F4472697665722F55
:101500005372632F73746D3332663378785F68611A
:101510006C5F7263632E63002E2E2F5372632F6DE8
:0815200061696E2E63000000FA
:04152800AD01000809
:04152C008901000829
:0C153000010000001000000000127A0012
:040000050800136D6F
:00000001FF
